:020000040800F2
:1000000000500020BD0B0008490C0008550C0008EA
:10001000610C00086D0C0008790C0008000000005D
:10002000000000000000000000000000850C000837
:10003000910C0008000000009D0C0008A90C0008AD
:10004000B50C0008C10C0008CD0C0008D90C000844
:10005000E50C0008F10C0008FD0C0008090D000873
:10006000150D0008210D00082D0D0008390D0008A0
:10007000450D0008510D00085D0D0008690D0008D0
:10008000750D0008810D00088D0D0008990D000800
:10009000A50D0008B10D0008BD0D0008C90D000830
:1000A000D50D0008E10D0008ED0D0008F90D000860
:1000B000050E0008110E00081D0E0008290E00088C
:1000C000350E0008410E00084D0E0008590E0008BC
:1000D000650E0008710E00087D0E0008890E0008EC
:1000E000950E0008A10E0008AD0E000800000000EB
:1000F0000000000000000000000000000000000000
:0C0100000000000000000000B90E000824
:10010C0080B483B000AF0346FB710B46BB71134642
:10011C007B71FB79022B00F09780022B00F3EE80B1
:10012C00002B02D0012B3AD0E8E0BB79072B17D873
:10013C00754B1B68BA7992000F2101FA02F2D24377
:10014C001146714A0B4013606F4B1B687979BA7971
:10015C00920001FA02F211466B4A0B431360C8E09D
:10016C00BB790F2B00F2C580BB79083BBB71664B8A
:10017C005B68BA7992000F2101FA02F2D243114660
:10018C00614A0B405360604B5B687979BA79920095
:10019C0001FA02F211465C4A0B435360A9E0BB79A9
:1001AC00072B17D8594B1B68BA7992000F2101FA0B
:1001BC0002F2D2431146554A0B401360534B1B6855
:1001CC007979BA79920001FA02F211464F4A0B433F
:1001DC0013601CE0BB790F2B19D8BB79083BBB71A2
:1001EC004A4B5B68BA7992000F2101FA02F2D243B2
:1001FC001146464A0B405360444B5B687979BA7997
:10020C00920001FA02F21146404A0B4353607B798B
:10021C00082B0AD13D4BDB68BA79012101FA02F2B5
:10022C0011463A4A0B43D36065E07B79082B62D1C7
:10023C00364BDB68BA79012101FA02F2D24311463E
:10024C00324A0B40D36056E0BB79072B17D8304BA2
:10025C001B68BA7992000F2101FA02F2D2431146BF
:10026C002B4A0B4013602A4B1B687979BA799200A0
:10027C0001FA02F21146264A0B4313601CE0BB79CB
:10028C000F2B19D8BB79083BBB71214B5B68BA7932
:10029C0092000F2101FA02F2D24311461C4A0B4084
:1002AC0053601B4B5B687979BA79920001FA02F2C0
:1002BC001146174A0B4353607B79082B0AD1144B18
:1002CC00DB68BA79012101FA02F21146104A0B439C
:1002DC00D36012E07B79082B0FD10D4BDB68BA7918
:1002EC00012101FA02F2D2431146094A0B40D360B4
:1002FC0003E000BF02E000BF00E000BF00BF0C370E
:10030C00BD4680BC704700BF00080140000C014096
:10031C000010014080B483B000AF0346FB710B4664
:10032C00BB7113467B71FB79022B2AD0022B3FDC6D
:10033C00002B02D0012B12D03AE07B79012B05D196
:10034C00BB7901229A401D4B1A612CE07B79002B62
:10035C0029D1BB7901229A40184B5A6123E07B7951
:10036C00012B05D1BB7901229A40154B1A611CE077
:10037C007B79002B19D1BB7901229A40104B5A6121
:10038C0013E07B79012B05D1BB7901229A400D4BEF
:10039C001A610CE07B79002B09D1BB7901229A40C0
:1003AC00084B5A6103E000BF02E000BF00E000BF51
:1003BC0000BF0C37BD4680BC704700BF0008014031
:1003CC00000C01400010014080B485B000AF034622
:1003DC000A46FB711346BB710023FB73FB79022B9E
:1003EC001AD0022B22DC002B02D0012B0AD01DE0EC
:1003FC00114B9A68BB7922FA03F3DBB203F00103C9
:10040C00FB7313E00D4B9A68BB7922FA03F3DBB252
:10041C0003F00103FB7309E0094B9A68BB7922FADC
:10042C0003F3DBB203F00103FB7300BFFB7B184645
:10043C001437BD4680BC704700080140000C0140D9
:10044C000010014080B582B000AF022200210020D4
:10045C00FFF756FE022201210020FFF751FE022277
:10046C0002210020FFF74CFE022203210020FFF79F
:10047C0047FE022204210020FFF742FE0222052142
:10048C000020FFF73DFE022206210020FFF738FE78
:10049C000023FB7103E000BFFB790133FB71FB7997
:1004AC00092BF8D9332000F016F8322000F013F89D
:1004BC00282000F010F80C2000F00DF8062000F0B9
:1004CC000AF8802000F007F8012000F004F800BFC3
:1004DC000837BD4680BD80B582B000AF0346FB71C6
:1004EC00002204210020FFF715FF00220521002027
:1004FC00FFF710FFFB79DB09DBB203F00103002BE4
:10050C0005D0012203210020FFF704FF04E00022A4
:10051C0003210020FFF7FEFEFB799B09DBB203F001
:10052C000103002B05D0012202210020FFF7F2FE6F
:10053C0004E0002202210020FFF7ECFEFB795B09AE
:10054C00DBB203F00103002B05D0012201210020B6
:10055C00FFF7E0FE04E0002201210020FFF7DAFEA5
:10056C00FB791B09DBB203F00103002B05D0012240
:10057C0000210020FFF7CEFE04E000220021002025
:10058C00FFF7C8FE00F0C0F9FB79DB08DBB203F023
:10059C000103002B05D0012203210020FFF7BAFE36
:1005AC0004E0002203210020FFF7B4FEFB799B0836
:1005BC00DBB203F00103002B05D001220221002045
:1005CC00FFF7A8FE04E0002202210020FFF7A2FEA4
:1005DC00FB795B08DBB203F00103002B05D0012291
:1005EC0001210020FFF796FE04E0002201210020EB
:1005FC00FFF790FEFB7903F00103002B05D00122DD
:10060C0000210020FFF786FE04E0002200210020DC
:10061C00FFF780FE00F078F900BF0837BD4680BDBB
:10062C0080B582B000AF0346FB710122042100208B
:10063C00FFF770FE002205210020FFF76BFEFB790F
:10064C00DB09DBB203F00103002B05D001220321EF
:10065C000020FFF75FFE04E0002203210020FFF7DB
:10066C0059FEFB799B09DBB203F00103002B05D08B
:10067C00012202210020FFF74DFE04E0002202219E
:10068C000020FFF747FEFB795B09DBB203F00103A7
:10069C00002B05D0012201210020FFF73BFE04E0D6
:1006AC00002201210020FFF735FEFB791B09DBB28C
:1006BC0003F00103002B05D0012200210020FFF7DD
:1006CC0029FE04E0002200210020FFF723FE00F0A9
:1006DC001BF9FB79DB08DBB203F00103002B05D01F
:1006EC00012203210020FFF715FE04E00022032164
:1006FC000020FFF70FFEFB799B08DBB203F0010330
:10070C00002B05D0012202210020FFF703FE04E09C
:10071C00002202210020FFF7FDFDFB795B08DBB214
:10072C0003F00103002B05D0012201210020FFF76B
:10073C00F1FD04E0002201210020FFF7EBFDFB7925
:10074C0003F00103002B05D0012200210020FFF74C
:10075C00E1FD04E0002200210020FFF7DBFD00F0AA
:10076C00D3F800BF0837BD4680BD80B582B000AF5E
:10077C000346FB710B46BB7113467B717A79BB79CF
:10078C001146184600F0E7F8FB791846FFF748FFCA
:10079C0000BF0837BD4680BD80B582B000AF786021
:1007AC0006E07B685A1C7A601B781846FFF738FF06
:1007BC007B681B78002BF4D100BF00BF0837BD4607
:1007CC0080BD80B582B000AF78600B46FB701346DD
:1007DC00BB70BA78FB781146184600F0BCF8786804
:1007EC00FFF7DAFF00BF0837BD4680BD80B586B085
:1007FC0000AF78600023FB750023BB757B68002B72
:10080C001FD13020FFF70CFF31E079681A4BA3FBA6
:10081C000123DA0813469B0013445B00CA1AD2B2B8
:10082C00FB7D3032D2B207F118010B4403F80C2CCB
:10083C007B68114AA2FB0323DB087B60FB7D013341
:10084C00FB757B68002BE0D1FB7DBB750CE0BB7DA1
:10085C00013B07F11802134413F80C3C1846FFF740
:10086C00DFFEBB7D013BBB75BB7D002BEFD100BF19
:10087C001837BD4680BD00BFCDCCCCCC80B582B086
:10088C0000AF78600B46FB701346BB70BA78FB78F0
:10089C001146184600F05FF87868FFF7A7FF00BF15
:1008AC000837BD4680BD80B584B000AF786008467F
:1008BC0011461A460346FB700B46BB7013467B7001
:1008CC000023FB737B780833DBB2DB00DBB218460A
:1008DC00FFF701FE0023FB7309E0FB7B7A681344EE
:1008EC001B781846FFF79CFEFB7B0133FB73FB7BED
:1008FC00072BF2D9BA78F9787B781846FFF735FFD1
:10090C0000BF1037BD4680BD80B582B000AF01225C
:10091C0006210020FFF7FEFC0023FB7103E000BF63
:10092C00FB790133FB71FB79092BF8D900220621E5
:10093C000020FFF7EFFC0023BB8003E000BFBB8867
:10094C000133BB80BB88B3F5FA6FF7D300BF00BF90
:10095C000837BD4680BD80B582B000AF03460A465D
:10096C00FB711346BB71BB79013BBB71FB79012B4E
:10097C0002D0022B07D00DE0BB79803BDBB21846CE
:10098C00FFF7A9FD06E0BB79403BDBB21846FFF749
:10099C00A2FD00BF00BF0837BD4680BD80B400AFCC
:1009AC001C4B00221A601B4B1A4A1B681360194B14
:1009BC00184A1B681360174B1B68164A43F48033A4
:1009CC00136000BF134B1B685B0C03F00103002B7F
:1009DC00F8D0104B00225A600E4B0E4A5B685360E5
:1009EC000C4B0C4A5B6853600A4B0A4A5B685360B9
:1009FC00084B084A5B685360064B064A5B685360B9
:100A0C00044B5B68034A43F00103536000BFBD46CF
:100A1C0080BC70470010024080B483B000AF034626
:100A2C000A46FB711346BB71FB79022B1CD0022BBF
:100A3C0025DC002B02D0012B0BD020E0124B5B6984
:100A4C00BA79012101FA02F211460F4A0B435361A4
:100A5C0015E00D4BDB69BA79012101FA02F211465E
:100A6C00094A0B43D3610AE0074B9B69BA79012110
:100A7C0001FA02F21146044A0B43936100BF00BF16
:100A8C000C37BD4680BC70470010024080B483B068
:100A9C0000AF03460A46FB711346BB71FB79022B70
:100AAC001ED0022B28DC002B02D0012B0CD023E013
:100ABC00144B5B69BA79012101FA02F2D243114657
:100ACC00104A0B40536117E00E4BDB69BA790121D8
:100ADC0001FA02F2D24311460A4A0B40D3610BE0F1
:100AEC00084B9B69BA79012101FA02F2D2431146F3
:100AFC00044A0B40936100BF00BF0C37BD4680BC5D
:100B0C00704700BF0010024080B485B000AF786021
:100B1C000023FB810CE00023BB8102E0BB89013385
:100B2C00BB81BB897A689A42F8DCFB890133FB8173
:100B3C00FB897A689A42EEDC00BF00BF1437BD46D1
:100B4C0080BC704780B500AFFFF728FF0221022060
:100B5C00FFF762FF012209210020FFF7D1FAFFF70E
:100B6C0071FC052201210F48FFF72BFE0322022105
:100B7C000D48FFF726FE4FF47A70FFF7C5FF0120F2
:100B8C00FFF7A9FC4FF47A70FFF7BEFF0748FFF799
:100B9C0003FE4FF47A70FFF7B7FF0120FFF79BFCC1
:100BAC00FEE700BFD00E0008DC0E0008EC0E0008BB
:100BBC0080B586B000AF00237B601B4B7B611B4B69
:100BCC003B611B4A194BD31A9B107B600023FB60C3
:100BDC000AE07A69131D7B613B69191D3961126842
:100BEC001A60FB680133FB60FA687B689A42F0D3A9
:100BFC00104A114BD31A9B107B600F4B3B610023A7
:100C0C00BB6007E03B691A1D3A6100221A60BB68A1
:100C1C000133BB60BA687B689A42F3D3FFF792FF4B
:100C2C0000BF1837BD4680BDF80E0008000000203C
:100C3C0004000020040000200400002080B400AF59
:100C4C0000BFBD4680BC704780B400AF00BFBD463E
:100C5C0080BC704780B400AF00BFBD4680BC7047FD
:100C6C0080B400AF00BFBD4680BC704780B400AFFD
:100C7C0000BFBD4680BC704780B400AF00BFBD460E
:100C8C0080BC704780B400AF00BFBD4680BC7047CD
:100C9C0080B400AF00BFBD4680BC704780B400AFCD
:100CAC0000BFBD4680BC704780B400AF00BFBD46DE
:100CBC0080BC704780B400AF00BFBD4680BC70479D
:100CCC0080B400AF00BFBD4680BC704780B400AF9D
:100CDC0000BFBD4680BC704780B400AF00BFBD46AE
:100CEC0080BC704780B400AF00BFBD4680BC70476D
:100CFC0080B400AF00BFBD4680BC704780B400AF6D
:100D0C0000BFBD4680BC704780B400AF00BFBD467D
:100D1C0080BC704780B400AF00BFBD4680BC70473C
:100D2C0080B400AF00BFBD4680BC704780B400AF3C
:100D3C0000BFBD4680BC704780B400AF00BFBD464D
:100D4C0080BC704780B400AF00BFBD4680BC70470C
:100D5C0080B400AF00BFBD4680BC704780B400AF0C
:100D6C0000BFBD4680BC704780B400AF00BFBD461D
:100D7C0080BC704780B400AF00BFBD4680BC7047DC
:100D8C0080B400AF00BFBD4680BC704780B400AFDC
:100D9C0000BFBD4680BC704780B400AF00BFBD46ED
:100DAC0080BC704780B400AF00BFBD4680BC7047AC
:100DBC0080B400AF00BFBD4680BC704780B400AFAC
:100DCC0000BFBD4680BC704780B400AF00BFBD46BD
:100DDC0080BC704780B400AF00BFBD4680BC70477C
:100DEC0080B400AF00BFBD4680BC704780B400AF7C
:100DFC0000BFBD4680BC704780B400AF00BFBD468D
:100E0C0080BC704780B400AF00BFBD4680BC70474B
:100E1C0080B400AF00BFBD4680BC704780B400AF4B
:100E2C0000BFBD4680BC704780B400AF00BFBD465C
:100E3C0080BC704780B400AF00BFBD4680BC70471B
:100E4C0080B400AF00BFBD4680BC704780B400AF1B
:100E5C0000BFBD4680BC704780B400AF00BFBD462C
:100E6C0080BC704780B400AF00BFBD4680BC7047EB
:100E7C0080B400AF00BFBD4680BC704780B400AFEB
:100E8C0000BFBD4680BC704780B400AF00BFBD46FC
:100E9C0080BC704780B400AF00BFBD4680BC7047BB
:100EAC0080B400AF00BFBD4680BC704780B400AFBB
:100EBC0000BFBD4680BC704780B400AF00BFBD46CC
:040ECC0080BC70472F
:100ED00057656C636F6D6520746F20006D792061BC
:100EE00070706C69636174696F6E00005468616E44
:080EF0006B732000005000208C
:040EF80000000000F6
:040000050800010CE2
:00000001FF
